{
  "contractName": "SupplyChain",
  "abi": [
    {
      "inputs": [],
      "stateMutability": "payable",
      "type": "constructor",
      "payable": true
    },
    {
      "anonymous": false,
      "inputs": [
        {
          "indexed": true,
          "internalType": "address",
          "name": "account",
          "type": "address"
        }
      ],
      "name": "ConsumerAdded",
      "type": "event"
    },
    {
      "anonymous": false,
      "inputs": [
        {
          "indexed": true,
          "internalType": "address",
          "name": "account",
          "type": "address"
        }
      ],
      "name": "ConsumerRemoved",
      "type": "event"
    },
    {
      "anonymous": false,
      "inputs": [
        {
          "indexed": true,
          "internalType": "address",
          "name": "account",
          "type": "address"
        }
      ],
      "name": "DistributorAdded",
      "type": "event"
    },
    {
      "anonymous": false,
      "inputs": [
        {
          "indexed": true,
          "internalType": "address",
          "name": "account",
          "type": "address"
        }
      ],
      "name": "DistributorRemoved",
      "type": "event"
    },
    {
      "anonymous": false,
      "inputs": [
        {
          "indexed": true,
          "internalType": "address",
          "name": "account",
          "type": "address"
        }
      ],
      "name": "FarmerAdded",
      "type": "event"
    },
    {
      "anonymous": false,
      "inputs": [
        {
          "indexed": true,
          "internalType": "address",
          "name": "account",
          "type": "address"
        }
      ],
      "name": "FarmerRemoved",
      "type": "event"
    },
    {
      "anonymous": false,
      "inputs": [
        {
          "indexed": false,
          "internalType": "uint256",
          "name": "upc",
          "type": "uint256"
        }
      ],
      "name": "ForSale",
      "type": "event"
    },
    {
      "anonymous": false,
      "inputs": [
        {
          "indexed": false,
          "internalType": "uint256",
          "name": "upc",
          "type": "uint256"
        }
      ],
      "name": "Harvested",
      "type": "event"
    },
    {
      "anonymous": false,
      "inputs": [
        {
          "indexed": false,
          "internalType": "uint256",
          "name": "upc",
          "type": "uint256"
        }
      ],
      "name": "Packed",
      "type": "event"
    },
    {
      "anonymous": false,
      "inputs": [
        {
          "indexed": false,
          "internalType": "uint256",
          "name": "upc",
          "type": "uint256"
        }
      ],
      "name": "Processed",
      "type": "event"
    },
    {
      "anonymous": false,
      "inputs": [
        {
          "indexed": false,
          "internalType": "uint256",
          "name": "upc",
          "type": "uint256"
        }
      ],
      "name": "Purchased",
      "type": "event"
    },
    {
      "anonymous": false,
      "inputs": [
        {
          "indexed": false,
          "internalType": "uint256",
          "name": "upc",
          "type": "uint256"
        }
      ],
      "name": "Received",
      "type": "event"
    },
    {
      "anonymous": false,
      "inputs": [
        {
          "indexed": true,
          "internalType": "address",
          "name": "account",
          "type": "address"
        }
      ],
      "name": "RetailerAdded",
      "type": "event"
    },
    {
      "anonymous": false,
      "inputs": [
        {
          "indexed": true,
          "internalType": "address",
          "name": "account",
          "type": "address"
        }
      ],
      "name": "RetailerRemoved",
      "type": "event"
    },
    {
      "anonymous": false,
      "inputs": [
        {
          "indexed": false,
          "internalType": "uint256",
          "name": "upc",
          "type": "uint256"
        }
      ],
      "name": "Shipped",
      "type": "event"
    },
    {
      "anonymous": false,
      "inputs": [
        {
          "indexed": false,
          "internalType": "uint256",
          "name": "upc",
          "type": "uint256"
        }
      ],
      "name": "Sold",
      "type": "event"
    },
    {
      "anonymous": false,
      "inputs": [
        {
          "indexed": true,
          "internalType": "address",
          "name": "oldOwner",
          "type": "address"
        },
        {
          "indexed": true,
          "internalType": "address",
          "name": "newOwner",
          "type": "address"
        }
      ],
      "name": "TransferOwnership",
      "type": "event"
    },
    {
      "inputs": [
        {
          "internalType": "address",
          "name": "account",
          "type": "address"
        }
      ],
      "name": "addConsumer",
      "outputs": [],
      "stateMutability": "nonpayable",
      "type": "function"
    },
    {
      "inputs": [
        {
          "internalType": "address",
          "name": "account",
          "type": "address"
        }
      ],
      "name": "addDistributor",
      "outputs": [],
      "stateMutability": "nonpayable",
      "type": "function"
    },
    {
      "inputs": [
        {
          "internalType": "address",
          "name": "account",
          "type": "address"
        }
      ],
      "name": "addFarmer",
      "outputs": [],
      "stateMutability": "nonpayable",
      "type": "function"
    },
    {
      "inputs": [
        {
          "internalType": "address",
          "name": "account",
          "type": "address"
        }
      ],
      "name": "addRetailer",
      "outputs": [],
      "stateMutability": "nonpayable",
      "type": "function"
    },
    {
      "inputs": [
        {
          "internalType": "address",
          "name": "account",
          "type": "address"
        }
      ],
      "name": "isConsumer",
      "outputs": [
        {
          "internalType": "bool",
          "name": "",
          "type": "bool"
        }
      ],
      "stateMutability": "view",
      "type": "function",
      "constant": true
    },
    {
      "inputs": [
        {
          "internalType": "address",
          "name": "account",
          "type": "address"
        }
      ],
      "name": "isDistributor",
      "outputs": [
        {
          "internalType": "bool",
          "name": "",
          "type": "bool"
        }
      ],
      "stateMutability": "view",
      "type": "function",
      "constant": true
    },
    {
      "inputs": [
        {
          "internalType": "address",
          "name": "account",
          "type": "address"
        }
      ],
      "name": "isFarmer",
      "outputs": [
        {
          "internalType": "bool",
          "name": "",
          "type": "bool"
        }
      ],
      "stateMutability": "view",
      "type": "function",
      "constant": true
    },
    {
      "inputs": [],
      "name": "isOwner",
      "outputs": [
        {
          "internalType": "bool",
          "name": "",
          "type": "bool"
        }
      ],
      "stateMutability": "view",
      "type": "function",
      "constant": true
    },
    {
      "inputs": [
        {
          "internalType": "address",
          "name": "account",
          "type": "address"
        }
      ],
      "name": "isRetailer",
      "outputs": [
        {
          "internalType": "bool",
          "name": "",
          "type": "bool"
        }
      ],
      "stateMutability": "view",
      "type": "function",
      "constant": true
    },
    {
      "inputs": [],
      "name": "owner",
      "outputs": [
        {
          "internalType": "address",
          "name": "",
          "type": "address"
        }
      ],
      "stateMutability": "view",
      "type": "function",
      "constant": true
    },
    {
      "inputs": [],
      "name": "renounceConsumer",
      "outputs": [],
      "stateMutability": "nonpayable",
      "type": "function"
    },
    {
      "inputs": [],
      "name": "renounceDistributor",
      "outputs": [],
      "stateMutability": "nonpayable",
      "type": "function"
    },
    {
      "inputs": [],
      "name": "renounceFarmer",
      "outputs": [],
      "stateMutability": "nonpayable",
      "type": "function"
    },
    {
      "inputs": [],
      "name": "renounceOwnership",
      "outputs": [],
      "stateMutability": "nonpayable",
      "type": "function"
    },
    {
      "inputs": [],
      "name": "renounceRetailer",
      "outputs": [],
      "stateMutability": "nonpayable",
      "type": "function"
    },
    {
      "inputs": [
        {
          "internalType": "address",
          "name": "newOwner",
          "type": "address"
        }
      ],
      "name": "transferOwnership",
      "outputs": [],
      "stateMutability": "nonpayable",
      "type": "function"
    },
    {
      "inputs": [
        {
          "internalType": "uint256",
          "name": "_upc",
          "type": "uint256"
        },
        {
          "internalType": "address",
          "name": "_originFarmerID",
          "type": "address"
        },
        {
          "internalType": "string",
          "name": "_originFarmName",
          "type": "string"
        },
        {
          "internalType": "string",
          "name": "_originFarmInformation",
          "type": "string"
        },
        {
          "internalType": "string",
          "name": "_originFarmLatitude",
          "type": "string"
        },
        {
          "internalType": "string",
          "name": "_originFarmLongitude",
          "type": "string"
        },
        {
          "internalType": "uint256",
          "name": "_productID",
          "type": "uint256"
        },
        {
          "internalType": "string",
          "name": "_productNotes",
          "type": "string"
        }
      ],
      "name": "harvestItem",
      "outputs": [],
      "stateMutability": "nonpayable",
      "type": "function"
    },
    {
      "inputs": [
        {
          "internalType": "uint256",
          "name": "_upc",
          "type": "uint256"
        }
      ],
      "name": "processItem",
      "outputs": [],
      "stateMutability": "nonpayable",
      "type": "function"
    },
    {
      "inputs": [
        {
          "internalType": "uint256",
          "name": "_upc",
          "type": "uint256"
        }
      ],
      "name": "packItem",
      "outputs": [],
      "stateMutability": "nonpayable",
      "type": "function"
    },
    {
      "inputs": [
        {
          "internalType": "uint256",
          "name": "_upc",
          "type": "uint256"
        },
        {
          "internalType": "uint256",
          "name": "_price",
          "type": "uint256"
        }
      ],
      "name": "sellItem",
      "outputs": [],
      "stateMutability": "nonpayable",
      "type": "function"
    },
    {
      "inputs": [
        {
          "internalType": "uint256",
          "name": "_upc",
          "type": "uint256"
        }
      ],
      "name": "buyItem",
      "outputs": [],
      "stateMutability": "payable",
      "type": "function",
      "payable": true
    },
    {
      "inputs": [
        {
          "internalType": "uint256",
          "name": "_upc",
          "type": "uint256"
        }
      ],
      "name": "shipItem",
      "outputs": [],
      "stateMutability": "nonpayable",
      "type": "function"
    },
    {
      "inputs": [
        {
          "internalType": "uint256",
          "name": "_upc",
          "type": "uint256"
        }
      ],
      "name": "receiveItem",
      "outputs": [],
      "stateMutability": "nonpayable",
      "type": "function"
    },
    {
      "inputs": [
        {
          "internalType": "uint256",
          "name": "_upc",
          "type": "uint256"
        }
      ],
      "name": "purchaseItem",
      "outputs": [],
      "stateMutability": "nonpayable",
      "type": "function"
    },
    {
      "inputs": [
        {
          "internalType": "uint256",
          "name": "_upc",
          "type": "uint256"
        }
      ],
      "name": "fetchItemBufferOne",
      "outputs": [
        {
          "internalType": "uint256",
          "name": "itemSKU",
          "type": "uint256"
        },
        {
          "internalType": "uint256",
          "name": "itemUPC",
          "type": "uint256"
        },
        {
          "internalType": "address",
          "name": "ownerID",
          "type": "address"
        },
        {
          "internalType": "address",
          "name": "originFarmerID",
          "type": "address"
        },
        {
          "internalType": "string",
          "name": "originFarmName",
          "type": "string"
        },
        {
          "internalType": "string",
          "name": "originFarmInformation",
          "type": "string"
        },
        {
          "internalType": "string",
          "name": "originFarmLatitude",
          "type": "string"
        },
        {
          "internalType": "string",
          "name": "originFarmLongitude",
          "type": "string"
        }
      ],
      "stateMutability": "view",
      "type": "function",
      "constant": true
    },
    {
      "inputs": [
        {
          "internalType": "uint256",
          "name": "_upc",
          "type": "uint256"
        }
      ],
      "name": "fetchItemBufferTwo",
      "outputs": [
        {
          "internalType": "uint256",
          "name": "itemSKU",
          "type": "uint256"
        },
        {
          "internalType": "uint256",
          "name": "itemUPC",
          "type": "uint256"
        },
        {
          "internalType": "uint256",
          "name": "productID",
          "type": "uint256"
        },
        {
          "internalType": "string",
          "name": "productNotes",
          "type": "string"
        },
        {
          "internalType": "uint256",
          "name": "productPrice",
          "type": "uint256"
        },
        {
          "internalType": "uint256",
          "name": "itemState",
          "type": "uint256"
        },
        {
          "internalType": "address",
          "name": "distributorID",
          "type": "address"
        },
        {
          "internalType": "address",
          "name": "retailerID",
          "type": "address"
        },
        {
          "internalType": "address",
          "name": "consumerID",
          "type": "address"
        }
      ],
      "stateMutability": "view",
      "type": "function",
      "constant": true
    }
  ],
  "bytecode": "0x6080604052335f806101000a81548173ffffffffffffffffffffffffffffffffffffffff021916908373ffffffffffffffffffffffffffffffffffffffff1602179055505f8054906101000a900473ffffffffffffffffffffffffffffffffffffffff1673ffffffffffffffffffffffffffffffffffffffff165f73ffffffffffffffffffffffffffffffffffffffff167f5c486528ec3e3f0ea91181cff8116f02bfa350e03b8b6f12e00765adbb5af85c60405160405180910390a3620000cd336200011660201b60201c565b620000de336200017260201b60201c565b620000ef33620001ce60201b60201c565b62000100336200022a60201b60201c565b60016006819055506001600581905550620003c0565b6200012c8160016200028660201b90919060201c565b8073ffffffffffffffffffffffffffffffffffffffff167f28b26e7a3d20aedbc5f8f2ebf7da671c0491723a2b78f47a097b0e46dee0714260405160405180910390a250565b620001888160026200028660201b90919060201c565b8073ffffffffffffffffffffffffffffffffffffffff167f71ae26cad02663e3d92efd6ec56031a80d74a20c0ab4183faa8bf262261c9baa60405160405180910390a250565b620001e48160036200028660201b90919060201c565b8073ffffffffffffffffffffffffffffffffffffffff167fddbf200aa634dc3fb81cfd68583dd1040d1c751d335e1d86b631bde3e977fea860405160405180910390a250565b620002408160046200028660201b90919060201c565b8073ffffffffffffffffffffffffffffffffffffffff167f2e0ded4123377a3c2bc9a26f1717655a129e2f20752924d42e730ec89c83dbd060405160405180910390a250565b5f73ffffffffffffffffffffffffffffffffffffffff168173ffffffffffffffffffffffffffffffffffffffff1603620002be575f80fd5b620002d082826200033460201b60201c565b15620002da575f80fd5b6001825f015f8373ffffffffffffffffffffffffffffffffffffffff1673ffffffffffffffffffffffffffffffffffffffff1681526020019081526020015f205f6101000a81548160ff0219169083151502179055505050565b5f8073ffffffffffffffffffffffffffffffffffffffff168273ffffffffffffffffffffffffffffffffffffffff16036200036d575f80fd5b825f015f8373ffffffffffffffffffffffffffffffffffffffff1673ffffffffffffffffffffffffffffffffffffffff1681526020019081526020015f205f9054906101000a900460ff16905092915050565b61288180620003ce5f395ff3fe608060405260043610610180575f3560e01c80638da5cb5b116100d0578063cf2991b011610089578063e7fb74c711610063578063e7fb74c714610525578063f2fde38b14610541578063f30fc48014610569578063f61c899a1461059157610180565b8063cf2991b0146104bf578063d38ea5bf146104e7578063db0e6a2f1461050f57610180565b80638da5cb5b146103a35780638ec4f505146103cd5780638f0c86fa146103f55780638f32d59b14610431578063a26be9991461045b578063b94290691461048357610180565b806366225ff91161013d57806377c459131161011757806377c45913146102e657806380c3f96d1461032957806380fc0ce414610351578063834ff7391461036757610180565b806366225ff914610264578063715018a6146102a85780637250e224146102be57610180565b8063112940f9146101845780632d923561146101ac57806349dae766146101d45780635da09b88146101fc57806361e6982d14610238578063644241db1461024e575b5f80fd5b34801561018f575f80fd5b506101aa60048036038101906101a59190611f5b565b6105b9565b005b3480156101b7575f80fd5b506101d260048036038101906101cd9190611fb9565b6105d6565b005b3480156101df575f80fd5b506101fa60048036038101906101f59190611ff7565b610724565b005b348015610207575f80fd5b50610222600480360381019061021d9190611f5b565b610857565b60405161022f919061203c565b60405180910390f35b348015610243575f80fd5b5061024c610873565b005b348015610259575f80fd5b5061026261087e565b005b34801561026f575f80fd5b5061028a60048036038101906102859190611ff7565b610889565b60405161029f999897969594939291906120fd565b60405180910390f35b3480156102b3575f80fd5b506102bc610a70565b005b3480156102c9575f80fd5b506102e460048036038101906102df9190611f5b565b610b3a565b005b3480156102f1575f80fd5b5061030c60048036038101906103079190611ff7565b610b57565b60405161032098979695949392919061218f565b60405180910390f35b348015610334575f80fd5b5061034f600480360381019061034a9190611f5b565b610e79565b005b34801561035c575f80fd5b50610365610e96565b005b348015610372575f80fd5b5061038d60048036038101906103889190611f5b565b610ea1565b60405161039a919061203c565b60405180910390f35b3480156103ae575f80fd5b506103b7610ebd565b6040516103c49190612227565b60405180910390f35b3480156103d8575f80fd5b506103f360048036038101906103ee9190611f5b565b610ee4565b005b348015610400575f80fd5b5061041b60048036038101906104169190611f5b565b610f01565b604051610428919061203c565b60405180910390f35b34801561043c575f80fd5b50610445610f1d565b604051610452919061203c565b60405180910390f35b348015610466575f80fd5b50610481600480360381019061047c9190611ff7565b610f72565b005b34801561048e575f80fd5b506104a960048036038101906104a49190611f5b565b6110ef565b6040516104b6919061203c565b60405180910390f35b3480156104ca575f80fd5b506104e560048036038101906104e0919061236c565b61110b565b005b3480156104f2575f80fd5b5061050d60048036038101906105089190611ff7565b6112a9565b005b34801561051a575f80fd5b50610523611425565b005b61053f600480360381019061053a9190611ff7565b611430565b005b34801561054c575f80fd5b5061056760048036038101906105629190611f5b565b6116d8565b005b348015610574575f80fd5b5061058f600480360381019061058a9190611ff7565b6116f4565b005b34801561059c575f80fd5b506105b760048036038101906105b29190611ff7565b611828565b005b6105c233610ea1565b6105ca575f80fd5b6105d38161195d565b50565b81600260078111156105eb576105ea6124a9565b5b60075f8381526020019081526020015f20600b015f9054906101000a900460ff16600781111561061e5761061d6124a9565b5b14610627575f80fd5b60075f8481526020019081526020015f206003015f9054906101000a900473ffffffffffffffffffffffffffffffffffffffff168073ffffffffffffffffffffffffffffffffffffffff163373ffffffffffffffffffffffffffffffffffffffff1614610692575f80fd5b600360075f8681526020019081526020015f20600b015f6101000a81548160ff021916908360078111156106c9576106c86124a9565b5b02179055508260075f8681526020019081526020015f20600a01819055507fa96ae0fc3224ebd79eebfe54bd130cc9cb94416cddd1f2386115e00b725324688460405161071691906124d6565b60405180910390a150505050565b805f6007811115610738576107376124a9565b5b60075f8381526020019081526020015f20600b015f9054906101000a900460ff16600781111561076b5761076a6124a9565b5b14610774575f80fd5b60075f8381526020019081526020015f206003015f9054906101000a900473ffffffffffffffffffffffffffffffffffffffff168073ffffffffffffffffffffffffffffffffffffffff163373ffffffffffffffffffffffffffffffffffffffff16146107df575f80fd5b600160075f8581526020019081526020015f20600b015f6101000a81548160ff02191690836007811115610816576108156124a9565b5b02179055507f5afe3b1bf87069693c075da5c22a98d63d1aef98a30dbbe538d0781a98b77ee58360405161084a91906124d6565b60405180910390a1505050565b5f61086c8260026119b790919063ffffffff16565b9050919050565b61087c33611a42565b565b61088733611a9c565b565b5f805f60605f805f805f60075f8b81526020019081526020015f205f0154985060075f8b81526020019081526020015f2060010154975060075f8b81526020019081526020015f2060080154965060075f8b81526020019081526020015f2060090180546108f69061251c565b80601f01602080910402602001604051908101604052809291908181526020018280546109229061251c565b801561096d5780601f106109445761010080835404028352916020019161096d565b820191905f5260205f20905b81548152906001019060200180831161095057829003601f168201915b5050505050955060075f8b81526020019081526020015f20600a0154945060075f8b81526020019081526020015f20600b015f9054906101000a900460ff1660078111156109be576109bd6124a9565b5b935060075f8b81526020019081526020015f20600b0160019054906101000a900473ffffffffffffffffffffffffffffffffffffffff16925060075f8b81526020019081526020015f20600c015f9054906101000a900473ffffffffffffffffffffffffffffffffffffffff16915060075f8b81526020019081526020015f20600d015f9054906101000a900473ffffffffffffffffffffffffffffffffffffffff1690509193959799909294969850565b610a78610f1d565b610a80575f80fd5b5f73ffffffffffffffffffffffffffffffffffffffff165f8054906101000a900473ffffffffffffffffffffffffffffffffffffffff1673ffffffffffffffffffffffffffffffffffffffff167f5c486528ec3e3f0ea91181cff8116f02bfa350e03b8b6f12e00765adbb5af85c60405160405180910390a35f805f6101000a81548173ffffffffffffffffffffffffffffffffffffffff021916908373ffffffffffffffffffffffffffffffffffffffff160217905550565b610b4333610f01565b610b4b575f80fd5b610b5481611af6565b50565b5f805f8060608060608060075f8a81526020019081526020015f205f0154975060075f8a81526020019081526020015f2060010154965060075f8a81526020019081526020015f206002015f9054906101000a900473ffffffffffffffffffffffffffffffffffffffff16955060075f8a81526020019081526020015f206003015f9054906101000a900473ffffffffffffffffffffffffffffffffffffffff16945060075f8a81526020019081526020015f206004018054610c199061251c565b80601f0160208091040260200160405190810160405280929190818152602001828054610c459061251c565b8015610c905780601f10610c6757610100808354040283529160200191610c90565b820191905f5260205f20905b815481529060010190602001808311610c7357829003601f168201915b5050505050935060075f8a81526020019081526020015f206005018054610cb69061251c565b80601f0160208091040260200160405190810160405280929190818152602001828054610ce29061251c565b8015610d2d5780601f10610d0457610100808354040283529160200191610d2d565b820191905f5260205f20905b815481529060010190602001808311610d1057829003601f168201915b5050505050925060075f8a81526020019081526020015f206006018054610d539061251c565b80601f0160208091040260200160405190810160405280929190818152602001828054610d7f9061251c565b8015610dca5780601f10610da157610100808354040283529160200191610dca565b820191905f5260205f20905b815481529060010190602001808311610dad57829003601f168201915b5050505050915060075f8a81526020019081526020015f206007018054610df09061251c565b80601f0160208091040260200160405190810160405280929190818152602001828054610e1c9061251c565b8015610e675780601f10610e3e57610100808354040283529160200191610e67565b820191905f5260205f20905b815481529060010190602001808311610e4a57829003601f168201915b50505050509050919395975091939597565b610e82336110ef565b610e8a575f80fd5b610e9381611b50565b50565b610e9f33611baa565b565b5f610eb68260016119b790919063ffffffff16565b9050919050565b5f805f9054906101000a900473ffffffffffffffffffffffffffffffffffffffff16905090565b610eed33610857565b610ef5575f80fd5b610efe81611c04565b50565b5f610f168260036119b790919063ffffffff16565b9050919050565b5f805f9054906101000a900473ffffffffffffffffffffffffffffffffffffffff1673ffffffffffffffffffffffffffffffffffffffff163373ffffffffffffffffffffffffffffffffffffffff1614905090565b8060056007811115610f8757610f866124a9565b5b60075f8381526020019081526020015f20600b015f9054906101000a900460ff166007811115610fba57610fb96124a9565b5b14610fc3575f80fd5b610fcc33610857565b610fd4575f80fd5b3360075f8481526020019081526020015f206002015f6101000a81548173ffffffffffffffffffffffffffffffffffffffff021916908373ffffffffffffffffffffffffffffffffffffffff1602179055503360075f8481526020019081526020015f20600c015f6101000a81548173ffffffffffffffffffffffffffffffffffffffff021916908373ffffffffffffffffffffffffffffffffffffffff160217905550600660075f8481526020019081526020015f20600b015f6101000a81548160ff021916908360078111156110af576110ae6124a9565b5b02179055507fa8142743f8f70a4c26f3691cf4ed59718381fb2f18070ec52be1f1022d855557826040516110e391906124d6565b60405180910390a15050565b5f6111048260046119b790919063ffffffff16565b9050919050565b60065460075f8a81526020019081526020015f205f01819055508760075f8a81526020019081526020015f20600101819055508660075f8a81526020019081526020015f206003015f6101000a81548173ffffffffffffffffffffffffffffffffffffffff021916908373ffffffffffffffffffffffffffffffffffffffff1602179055508560075f8a81526020019081526020015f2060040190816111b191906126e9565b508460075f8a81526020019081526020015f2060050190816111d391906126e9565b508360075f8a81526020019081526020015f2060060190816111f591906126e9565b508260075f8a81526020019081526020015f20600701908161121791906126e9565b508160075f8a81526020019081526020015f20600801819055508060075f8a81526020019081526020015f20600901908161125291906126e9565b50600160065461126291906127e5565b6006819055507f8e55ccfc9778ff8eba1646d765cf1982537ce0f9257054a17b48aad7452501838860405161129791906124d6565b60405180910390a15050505050505050565b80600660078111156112be576112bd6124a9565b5b60075f8381526020019081526020015f20600b015f9054906101000a900460ff1660078111156112f1576112f06124a9565b5b146112fa575f80fd5b61130333610ea1565b61130b575f80fd5b3360075f8481526020019081526020015f206002015f6101000a81548173ffffffffffffffffffffffffffffffffffffffff021916908373ffffffffffffffffffffffffffffffffffffffff1602179055503360075f8481526020019081526020015f20600d015f6101000a81548173ffffffffffffffffffffffffffffffffffffffff021916908373ffffffffffffffffffffffffffffffffffffffff1602179055506007805f8481526020019081526020015f20600b015f6101000a81548160ff021916908360078111156113e5576113e46124a9565b5b02179055507f653d56639fee6b566a5c804764e9689de38645f0b733df89a36a1b7b42173dd88260405161141991906124d6565b60405180910390a15050565b61142e33611c5e565b565b8060036007811115611445576114446124a9565b5b60075f8381526020019081526020015f20600b015f9054906101000a900460ff166007811115611478576114776124a9565b5b14611481575f80fd5b348034101561148e575f80fd5b825f60075f8381526020019081526020015f20600a015490505f81346114b49190612818565b905060075f8481526020019081526020015f20600d015f9054906101000a900473ffffffffffffffffffffffffffffffffffffffff1673ffffffffffffffffffffffffffffffffffffffff166108fc8290811502906040515f60405180830381858888f1935050505015801561152c573d5f803e3d5ffd5b503360075f8881526020019081526020015f206002015f6101000a81548173ffffffffffffffffffffffffffffffffffffffff021916908373ffffffffffffffffffffffffffffffffffffffff1602179055503360075f8881526020019081526020015f20600b0160016101000a81548173ffffffffffffffffffffffffffffffffffffffff021916908373ffffffffffffffffffffffffffffffffffffffff160217905550600460075f8881526020019081526020015f20600b015f6101000a81548160ff02191690836007811115611609576116086124a9565b5b021790555060075f8781526020019081526020015f206003015f9054906101000a900473ffffffffffffffffffffffffffffffffffffffff1673ffffffffffffffffffffffffffffffffffffffff166108fc60075f8981526020019081526020015f20600a015490811502906040515f60405180830381858888f19350505050158015611698573d5f803e3d5ffd5b507f92f64ca637d023f354075a4be751b169c1a8a9ccb6d33cdd0cb3520543995727866040516116c891906124d6565b60405180910390a1505050505050565b6116e0610f1d565b6116e8575f80fd5b6116f181611cb8565b50565b8060016007811115611709576117086124a9565b5b60075f8381526020019081526020015f20600b015f9054906101000a900460ff16600781111561173c5761173b6124a9565b5b14611745575f80fd5b60075f8381526020019081526020015f206003015f9054906101000a900473ffffffffffffffffffffffffffffffffffffffff168073ffffffffffffffffffffffffffffffffffffffff163373ffffffffffffffffffffffffffffffffffffffff16146117b0575f80fd5b600260075f8581526020019081526020015f20600b015f6101000a81548160ff021916908360078111156117e7576117e66124a9565b5b02179055507f9b3b66e2380b690bae22c73ef1428fb0c91e72fe14a4b6defa13035214187aff8360405161181b91906124d6565b60405180910390a1505050565b806004600781111561183d5761183c6124a9565b5b60075f8381526020019081526020015f20600b015f9054906101000a900460ff1660078111156118705761186f6124a9565b5b14611879575f80fd5b60075f8381526020019081526020015f20600b0160019054906101000a900473ffffffffffffffffffffffffffffffffffffffff168073ffffffffffffffffffffffffffffffffffffffff163373ffffffffffffffffffffffffffffffffffffffff16146118e5575f80fd5b600560075f8581526020019081526020015f20600b015f6101000a81548160ff0219169083600781111561191c5761191b6124a9565b5b02179055507ff00b9a5725b80c54016f42114f6ed7792d22eecb116011c4afac29c57bef6c958360405161195091906124d6565b60405180910390a1505050565b611971816001611daa90919063ffffffff16565b8073ffffffffffffffffffffffffffffffffffffffff167f28b26e7a3d20aedbc5f8f2ebf7da671c0491723a2b78f47a097b0e46dee0714260405160405180910390a250565b5f8073ffffffffffffffffffffffffffffffffffffffff168273ffffffffffffffffffffffffffffffffffffffff16036119ef575f80fd5b825f015f8373ffffffffffffffffffffffffffffffffffffffff1673ffffffffffffffffffffffffffffffffffffffff1681526020019081526020015f205f9054906101000a900460ff16905092915050565b611a56816001611e4e90919063ffffffff16565b8073ffffffffffffffffffffffffffffffffffffffff167fe3f5ed5f263f1f01764a96edfc7d025f511ec5f7d180e8816908b78bcf74f09860405160405180910390a250565b611ab0816003611e4e90919063ffffffff16565b8073ffffffffffffffffffffffffffffffffffffffff167f126174f6cf49c81cdb4a9214c6b8f037bef55b4ec31e4fc776cea2a1c8a88d5960405160405180910390a250565b611b0a816003611daa90919063ffffffff16565b8073ffffffffffffffffffffffffffffffffffffffff167fddbf200aa634dc3fb81cfd68583dd1040d1c751d335e1d86b631bde3e977fea860405160405180910390a250565b611b64816004611daa90919063ffffffff16565b8073ffffffffffffffffffffffffffffffffffffffff167f2e0ded4123377a3c2bc9a26f1717655a129e2f20752924d42e730ec89c83dbd060405160405180910390a250565b611bbe816004611e4e90919063ffffffff16565b8073ffffffffffffffffffffffffffffffffffffffff167fa5e0f060af304ab17dd418c7927e3da3ae7868189bf387aee09ab179ccc572f260405160405180910390a250565b611c18816002611daa90919063ffffffff16565b8073ffffffffffffffffffffffffffffffffffffffff167f71ae26cad02663e3d92efd6ec56031a80d74a20c0ab4183faa8bf262261c9baa60405160405180910390a250565b611c72816002611e4e90919063ffffffff16565b8073ffffffffffffffffffffffffffffffffffffffff167fdb7176e79cffef81cb01767dd0447a0b24bb72ca9778d4b245581086b2a7e6db60405160405180910390a250565b5f73ffffffffffffffffffffffffffffffffffffffff168173ffffffffffffffffffffffffffffffffffffffff1603611cef575f80fd5b8073ffffffffffffffffffffffffffffffffffffffff165f8054906101000a900473ffffffffffffffffffffffffffffffffffffffff1673ffffffffffffffffffffffffffffffffffffffff167f5c486528ec3e3f0ea91181cff8116f02bfa350e03b8b6f12e00765adbb5af85c60405160405180910390a3805f806101000a81548173ffffffffffffffffffffffffffffffffffffffff021916908373ffffffffffffffffffffffffffffffffffffffff16021790555050565b5f73ffffffffffffffffffffffffffffffffffffffff168173ffffffffffffffffffffffffffffffffffffffff1603611de1575f80fd5b611deb82826119b7565b15611df4575f80fd5b6001825f015f8373ffffffffffffffffffffffffffffffffffffffff1673ffffffffffffffffffffffffffffffffffffffff1681526020019081526020015f205f6101000a81548160ff0219169083151502179055505050565b5f73ffffffffffffffffffffffffffffffffffffffff168173ffffffffffffffffffffffffffffffffffffffff1603611e85575f80fd5b611e8f82826119b7565b611e97575f80fd5b5f825f015f8373ffffffffffffffffffffffffffffffffffffffff1673ffffffffffffffffffffffffffffffffffffffff1681526020019081526020015f205f6101000a81548160ff0219169083151502179055505050565b5f604051905090565b5f80fd5b5f80fd5b5f73ffffffffffffffffffffffffffffffffffffffff82169050919050565b5f611f2a82611f01565b9050919050565b611f3a81611f20565b8114611f44575f80fd5b50565b5f81359050611f5581611f31565b92915050565b5f60208284031215611f7057611f6f611ef9565b5b5f611f7d84828501611f47565b91505092915050565b5f819050919050565b611f9881611f86565b8114611fa2575f80fd5b50565b5f81359050611fb381611f8f565b92915050565b5f8060408385031215611fcf57611fce611ef9565b5b5f611fdc85828601611fa5565b9250506020611fed85828601611fa5565b9150509250929050565b5f6020828403121561200c5761200b611ef9565b5b5f61201984828501611fa5565b91505092915050565b5f8115159050919050565b61203681612022565b82525050565b5f60208201905061204f5f83018461202d565b92915050565b61205e81611f86565b82525050565b5f81519050919050565b5f82825260208201905092915050565b5f5b8381101561209b578082015181840152602081019050612080565b5f8484015250505050565b5f601f19601f8301169050919050565b5f6120c082612064565b6120ca818561206e565b93506120da81856020860161207e565b6120e3816120a6565b840191505092915050565b6120f781611f20565b82525050565b5f610120820190506121115f83018c612055565b61211e602083018b612055565b61212b604083018a612055565b818103606083015261213d81896120b6565b905061214c6080830188612055565b61215960a0830187612055565b61216660c08301866120ee565b61217360e08301856120ee565b6121816101008301846120ee565b9a9950505050505050505050565b5f610100820190506121a35f83018b612055565b6121b0602083018a612055565b6121bd60408301896120ee565b6121ca60608301886120ee565b81810360808301526121dc81876120b6565b905081810360a08301526121f081866120b6565b905081810360c083015261220481856120b6565b905081810360e083015261221881846120b6565b90509998505050505050505050565b5f60208201905061223a5f8301846120ee565b92915050565b5f80fd5b5f80fd5b7f4e487b71000000000000000000000000000000000000000000000000000000005f52604160045260245ffd5b61227e826120a6565b810181811067ffffffffffffffff8211171561229d5761229c612248565b5b80604052505050565b5f6122af611ef0565b90506122bb8282612275565b919050565b5f67ffffffffffffffff8211156122da576122d9612248565b5b6122e3826120a6565b9050602081019050919050565b828183375f83830152505050565b5f61231061230b846122c0565b6122a6565b90508281526020810184848401111561232c5761232b612244565b5b6123378482856122f0565b509392505050565b5f82601f83011261235357612352612240565b5b81356123638482602086016122fe565b91505092915050565b5f805f805f805f80610100898b03121561238957612388611ef9565b5b5f6123968b828c01611fa5565b98505060206123a78b828c01611f47565b975050604089013567ffffffffffffffff8111156123c8576123c7611efd565b5b6123d48b828c0161233f565b965050606089013567ffffffffffffffff8111156123f5576123f4611efd565b5b6124018b828c0161233f565b955050608089013567ffffffffffffffff81111561242257612421611efd565b5b61242e8b828c0161233f565b94505060a089013567ffffffffffffffff81111561244f5761244e611efd565b5b61245b8b828c0161233f565b93505060c061246c8b828c01611fa5565b92505060e089013567ffffffffffffffff81111561248d5761248c611efd565b5b6124998b828c0161233f565b9150509295985092959890939650565b7f4e487b71000000000000000000000000000000000000000000000000000000005f52602160045260245ffd5b5f6020820190506124e95f830184612055565b92915050565b7f4e487b71000000000000000000000000000000000000000000000000000000005f52602260045260245ffd5b5f600282049050600182168061253357607f821691505b602082108103612546576125456124ef565b5b50919050565b5f819050815f5260205f209050919050565b5f6020601f8301049050919050565b5f82821b905092915050565b5f600883026125a87fffffffffffffffffffffffffffffffffffffffffffffffffffffffffffffffff8261256d565b6125b2868361256d565b95508019841693508086168417925050509392505050565b5f819050919050565b5f6125ed6125e86125e384611f86565b6125ca565b611f86565b9050919050565b5f819050919050565b612606836125d3565b61261a612612826125f4565b848454612579565b825550505050565b5f90565b61262e612622565b6126398184846125fd565b505050565b5b8181101561265c576126515f82612626565b60018101905061263f565b5050565b601f8211156126a1576126728161254c565b61267b8461255e565b8101602085101561268a578190505b61269e6126968561255e565b83018261263e565b50505b505050565b5f82821c905092915050565b5f6126c15f19846008026126a6565b1980831691505092915050565b5f6126d983836126b2565b9150826002028217905092915050565b6126f282612064565b67ffffffffffffffff81111561270b5761270a612248565b5b612715825461251c565b612720828285612660565b5f60209050601f831160018114612751575f841561273f578287015190505b61274985826126ce565b8655506127b0565b601f19841661275f8661254c565b5f5b8281101561278657848901518255600182019150602085019450602081019050612761565b868310156127a3578489015161279f601f8916826126b2565b8355505b6001600288020188555050505b505050505050565b7f4e487b71000000000000000000000000000000000000000000000000000000005f52601160045260245ffd5b5f6127ef82611f86565b91506127fa83611f86565b9250828201905080821115612812576128116127b8565b5b92915050565b5f61282282611f86565b915061282d83611f86565b9250828203905081811115612845576128446127b8565b5b9291505056fea264697066735822122042640346487c14cb975c1e2c370d31c2e99789bc19a1738cd28f71577019966d64736f6c63430008160033",
  "immutableReferences": {},
  "source": "// SPDX-License-Identifier: MIT\r\npragma solidity ^0.8.22;\r\n\r\nimport \"../coffeecore/Ownable.sol\";\r\nimport \"../coffeeaccesscontrol/ConsumerRole.sol\";\r\nimport \"../coffeeaccesscontrol/DistributorRole.sol\";\r\nimport \"../coffeeaccesscontrol/FarmerRole.sol\";\r\nimport \"../coffeeaccesscontrol/RetailerRole.sol\";\r\n\r\n\r\ncontract SupplyChain is Ownable, ConsumerRole, RetailerRole, DistributorRole, FarmerRole {\r\n\r\n  // Define a variable called 'upc' for Universal Product Code (UPC)\r\n  uint  upc;\r\n\r\n  // Define a variable called 'sku' for Stock Keeping Unit (SKU)\r\n  uint  sku;\r\n\r\n  // Define a public mapping 'items' that maps the UPC to an Item.\r\n  mapping (uint => Item) items;\r\n\r\n  // Define a public mapping 'itemsHistory' that maps the UPC to an array of TxHash, \r\n  // that track its journey through the supply chain -- to be sent from DApp.\r\n  mapping (uint => string[]) itemsHistory;\r\n  \r\n  // Define enum 'State' with the following values:\r\n  enum State \r\n  { \r\n    Harvested,  // 0\r\n    Processed,  // 1\r\n    Packed,     // 2\r\n    ForSale,    // 3\r\n    Sold,       // 4\r\n    Shipped,    // 5\r\n    Received,   // 6\r\n    Purchased   // 7\r\n    }\r\n\r\n  State constant defaultState = State.Harvested;\r\n\r\n  // Define a struct 'Item' with the following fields:\r\n  struct Item {\r\n    uint    sku;  // Stock Keeping Unit (SKU)\r\n    uint    upc; // Universal Product Code (UPC), generated by the Farmer, goes on the package, can be verified by the Consumer\r\n    address ownerID;  // Metamask-Ethereum address of the current owner as the product moves through 8 stages\r\n    address originFarmerID; // Metamask-Ethereum address of the Farmer\r\n    string  originFarmName; // Farmer Name\r\n    string  originFarmInformation;  // Farmer Information\r\n    string  originFarmLatitude; // Farm Latitude\r\n    string  originFarmLongitude;  // Farm Longitude\r\n    uint    productID;  // Product ID potentially a combination of upc + sku\r\n    string  productNotes; // Product Notes\r\n    uint    productPrice; // Product Price\r\n    State   itemState;  // Product State as represented in the enum above\r\n    address distributorID;  // Metamask-Ethereum address of the Distributor\r\n    address retailerID; // Metamask-Ethereum address of the Retailer\r\n    address consumerID; // Metamask-Ethereum address of the Consumer\r\n  }\r\n\r\n  // Define 8 events with the same 8 state values and accept 'upc' as input argument\r\n  event Harvested(uint upc);\r\n  event Processed(uint upc);\r\n  event Packed(uint upc);\r\n  event ForSale(uint upc);\r\n  event Sold(uint upc);\r\n  event Shipped(uint upc);\r\n  event Received(uint upc);\r\n  event Purchased(uint upc);\r\n\r\n  // Define a modifer that checks to see if msg.sender == owner of the contract\r\n  // modifier onlyOwner() {\r\n  //   require(msg.sender == owner);\r\n  //   _;\r\n  // }\r\n\r\n  // Define a modifer that verifies the Caller\r\n  modifier verifyCaller(address _address) {\r\n    require(msg.sender == _address); \r\n    _;\r\n  }\r\n\r\n  // Define a modifier that checks if the paid amount is sufficient to cover the price\r\n  modifier paidEnough(uint _price) { \r\n    require(msg.value >= _price); \r\n    _;\r\n  }\r\n  \r\n  // Define a modifier that checks the price and refunds the remaining balance\r\n  modifier checkValue(uint _upc) {\r\n    uint _price = items[_upc].productPrice;\r\n    uint amountToReturn = msg.value - _price;\r\n    payable(items[_upc].consumerID).transfer(amountToReturn);\r\n    _;\r\n  }\r\n\r\n  // Define a modifier that checks if an item.state of a upc is Harvested\r\n  modifier harvested(uint _upc) {\r\n    require(items[_upc].itemState == State.Harvested);\r\n    _;\r\n  }\r\n\r\n  // Define a modifier that checks if an item.state of a upc is Processed\r\n  modifier processed(uint _upc) {\r\n    require(items[_upc].itemState == State.Processed);\r\n    _;\r\n  }\r\n  \r\n  // Define a modifier that checks if an item.state of a upc is Packed\r\n  modifier packed(uint _upc) {\r\n    require(items[_upc].itemState == State.Packed);\r\n    _;\r\n  }\r\n\r\n  // Define a modifier that checks if an item.state of a upc is ForSale\r\n  modifier forSale(uint _upc) {\r\n    require(items[_upc].itemState == State.ForSale);\r\n    _;\r\n  }\r\n\r\n  // Define a modifier that checks if an item.state of a upc is Sold\r\n  modifier sold(uint _upc) {\r\n    require(items[_upc].itemState == State.Sold);\r\n    _;\r\n  }\r\n  \r\n  // Define a modifier that checks if an item.state of a upc is Shipped\r\n  modifier shipped(uint _upc) {\r\n    require(items[_upc].itemState == State.Shipped);\r\n    _;\r\n  }\r\n\r\n  // Define a modifier that checks if an item.state of a upc is Received\r\n  modifier received(uint _upc) {\r\n    require(items[_upc].itemState == State.Received);\r\n    _;\r\n  }\r\n\r\n  // Define a modifier that checks if an item.state of a upc is Purchased\r\n  modifier purchased(uint _upc) {\r\n    require(items[_upc].itemState == State.Purchased);\r\n    _;\r\n  }\r\n\r\n  // In the constructor set 'owner' to the address that instantiated the contract\r\n  // and set 'sku' to 1\r\n  // and set 'upc' to 1\r\n  constructor()  payable {\r\n    // owner = msg.sender; --> inherited from Ownable\r\n    sku = 1;\r\n    upc = 1;\r\n  }\r\n\r\n  // Define a function 'kill' if required\r\n  // function kill() public {\r\n  //   if (msg.sender == owner) {\r\n  //     selfdestruct(owner);\r\n  //   }\r\n  // } --> no longer required\r\n\r\n  // Define a function 'harvestItem' that allows a farmer to mark an item 'Harvested'\r\n  function harvestItem(uint _upc, address _originFarmerID, string memory _originFarmName, string memory _originFarmInformation, string memory  _originFarmLatitude, string memory _originFarmLongitude, uint _productID, string memory _productNotes) public \r\n  {\r\n    // Add the new item as part of Harvest\r\n    items[_upc].sku = sku;\r\n    items[_upc].upc = _upc;\r\n    items[_upc].originFarmerID = _originFarmerID;\r\n    items[_upc].originFarmName = _originFarmName;\r\n    items[_upc].originFarmInformation = _originFarmInformation;\r\n    items[_upc].originFarmLatitude = _originFarmLatitude;\r\n    items[_upc].originFarmLongitude = _originFarmLongitude;\r\n    items[_upc].productID = _productID;\r\n    items[_upc].productNotes = _productNotes;\r\n    // Increment sku\r\n    sku = sku + 1;\r\n    // Emit the appropriate event\r\n    emit Harvested(_upc);\r\n  }\r\n\r\n  // Define a function 'processItem' that allows a farmer to mark an item 'Processed'\r\n  function processItem(uint _upc) public \r\n  // Call modifier to check if upc has passed previous supply chain stage\r\n  harvested(_upc)\r\n  // Call modifier to verify caller of this function\r\n  verifyCaller(items[_upc].originFarmerID)\r\n  {\r\n    // Update the appropriate fields\r\n    items[_upc].itemState = State.Processed;\r\n    // Emit the appropriate event\r\n    emit Processed(_upc);\r\n  }\r\n\r\n  // Define a function 'packItem' that allows a farmer to mark an item 'Packed'\r\n  function packItem(uint _upc) public \r\n  // Call modifier to check if upc has passed previous supply chain stage\r\n  processed(_upc)\r\n  // Call modifier to verify caller of this function\r\n  verifyCaller(items[_upc].originFarmerID)\r\n  {\r\n    // Update the appropriate fields\r\n    items[_upc].itemState = State.Packed;\r\n    // Emit the appropriate event\r\n    emit Packed(_upc);\r\n  }\r\n\r\n  // Define a function 'sellItem' that allows a farmer to mark an item 'ForSale'\r\n  function sellItem(uint _upc, uint _price) public \r\n  // Call modifier to check if upc has passed previous supply chain stage\r\n  packed(_upc)\r\n  // Call modifier to verify caller of this function\r\n  verifyCaller(items[_upc].originFarmerID)\r\n  {\r\n    // Update the appropriate fields\r\n    items[_upc].itemState = State.ForSale;\r\n    items[_upc].productPrice = _price;\r\n    // Emit the appropriate event\r\n    emit ForSale(_upc);\r\n  }\r\n\r\n  // Define a function 'buyItem' that allows the disributor to mark an item 'Sold'\r\n  // Use the above defined modifiers to check if the item is available for sale, if the buyer has paid enough, \r\n  // and any excess ether sent is refunded back to the buyer\r\n  function buyItem(uint _upc) public payable \r\n    // Call modifier to check if upc has passed previous supply chain stage\r\n    forSale(_upc)\r\n    // Call modifer to check if buyer has paid enough\r\n    paidEnough(msg.value)\r\n    // Call modifer to send any excess ether back to buyer\r\n    checkValue(_upc)\r\n    {\r\n    // Update the appropriate fields - ownerID, distributorID, itemState\r\n    items[_upc].ownerID = msg.sender;\r\n    items[_upc].distributorID = msg.sender;\r\n    items[_upc].itemState = State.Sold;\r\n\r\n    // Transfer money to farmer\r\n    payable(items[_upc].originFarmerID).transfer(items[_upc].productPrice);\r\n    //items[_upc].transferOwnership(msg.sender);\r\n\r\n    // emit the appropriate event\r\n    emit Sold(_upc);\r\n  }\r\n\r\n  // Define a function 'shipItem' that allows the distributor to mark an item 'Shipped'\r\n  // Use the above modifers to check if the item is sold\r\n  function shipItem(uint _upc) public \r\n    // Call modifier to check if upc has passed previous supply chain stage\r\n    sold(_upc)\r\n    // Call modifier to verify caller of this function\r\n    verifyCaller(items[_upc].distributorID)\r\n    {\r\n    // Update the appropriate fields\r\n    items[_upc].itemState = State.Shipped;\r\n\r\n    // Emit the appropriate event\r\n    emit Shipped(_upc);\r\n  }\r\n\r\n  // Define a function 'receiveItem' that allows the retailer to mark an item 'Received'\r\n  // Use the above modifiers to check if the item is shipped\r\n  function receiveItem(uint _upc) public \r\n    // Call modifier to check if upc has passed previous supply chain stage\r\n    shipped(_upc)\r\n    // Access Control List enforced by calling Smart Contract / DApp\r\n    onlyRetailer()\r\n    {\r\n    // Update the appropriate fields - ownerID, retailerID, itemState\r\n    items[_upc].ownerID = msg.sender;\r\n    items[_upc].retailerID = msg.sender;\r\n    items[_upc].itemState = State.Received;\r\n    // Emit the appropriate event\r\n    emit Received(_upc);\r\n  }\r\n\r\n  // Define a function 'purchaseItem' that allows the consumer to mark an item 'Purchased'\r\n  // Use the above modifiers to check if the item is received\r\n  function purchaseItem(uint _upc) public \r\n    // Call modifier to check if upc has passed previous supply chain stage\r\n    received(_upc)\r\n    // Access Control List enforced by calling Smart Contract / DApp\r\n    onlyConsumer()\r\n    {\r\n    // Update the appropriate fields - ownerID, consumerID, itemState\r\n    items[_upc].ownerID = msg.sender;\r\n    items[_upc].consumerID = msg.sender;\r\n    items[_upc].itemState = State.Purchased;\r\n    // Emit the appropriate event\r\n    emit Purchased(_upc);\r\n  }\r\n\r\n  // Define a function 'fetchItemBufferOne' that fetches the data\r\n  function fetchItemBufferOne(uint _upc) public view returns \r\n  (\r\n  uint    itemSKU,\r\n  uint    itemUPC,\r\n  address ownerID,\r\n  address originFarmerID,\r\n  string memory  originFarmName,\r\n  string  memory originFarmInformation,\r\n  string  memory originFarmLatitude,\r\n  string memory originFarmLongitude\r\n  ) \r\n  {\r\n    // Assign values to the 8 parameters\r\n    itemSKU = items[_upc].sku;\r\n    itemUPC = items[_upc].upc;\r\n    ownerID = items[_upc].ownerID;\r\n    originFarmerID = items[_upc].originFarmerID;\r\n    originFarmName = items[_upc].originFarmName;\r\n    originFarmInformation = items[_upc].originFarmInformation;\r\n    originFarmLatitude = items[_upc].originFarmLatitude;\r\n    originFarmLongitude = items[_upc].originFarmLongitude;\r\n    \r\n  return \r\n  (\r\n  itemSKU,\r\n  itemUPC,\r\n  ownerID,\r\n  originFarmerID,\r\n  originFarmName,\r\n  originFarmInformation,\r\n  originFarmLatitude,\r\n  originFarmLongitude\r\n  );\r\n  }\r\n\r\n  // Define a function 'fetchItemBufferTwo' that fetches the data\r\n  function fetchItemBufferTwo(uint _upc) public view returns \r\n  (\r\n  uint    itemSKU,\r\n  uint    itemUPC,\r\n  uint    productID,\r\n  string memory productNotes,\r\n  uint    productPrice,\r\n  uint    itemState,\r\n  address distributorID,\r\n  address retailerID,\r\n  address consumerID\r\n  ) \r\n  {\r\n    // Assign values to the 9 parameters\r\n    itemSKU = items[_upc].sku;\r\n    itemUPC = items[_upc].upc;\r\n    productID = items[_upc].productID;\r\n    productNotes = items[_upc].productNotes;\r\n    productPrice = items[_upc].productPrice;\r\n    itemState = uint(items[_upc].itemState);\r\n    distributorID = items[_upc].distributorID;\r\n    retailerID = items[_upc].retailerID;\r\n    consumerID = items[_upc].consumerID;\r\n    \r\n  return \r\n  (\r\n  itemSKU,\r\n  itemUPC,\r\n  productID,\r\n  productNotes,\r\n  productPrice,\r\n  itemState,\r\n  distributorID,\r\n  retailerID,\r\n  consumerID\r\n  );\r\n  }\r\n}",
  "sourcePath": "E:\\AlchemyFinalProject\\Coffee\\coffee\\contracts\\coffeebase\\SupplyChain.sol",
  "compiler": {
    "name": "solc",
    "version": "0.8.22+commit.4fc1097e.Emscripten.clang"
  },
  "schemaVersion": "3.4.16",
  "updatedAt": "2024-01-05T20:48:32.363Z",
  "networkType": "ethereum",
  "devdoc": {
    "kind": "dev",
    "methods": {},
    "version": 1
  },
  "userdoc": {
    "kind": "user",
    "methods": {
      "isOwner()": {
        "notice": "Check if the calling address is the owner of the contract"
      },
      "owner()": {
        "notice": "Look up the address of the owner"
      },
      "renounceOwnership()": {
        "notice": "Define a function to renounce ownerhip"
      },
      "transferOwnership(address)": {
        "notice": "Define a public function to transfer ownership"
      }
    },
    "version": 1
  }
}